{
  "_format": "hh-sol-artifact-1",
  "contractName": "SupplyChain",
  "sourceName": "contracts/SupplyChain.sol",
  "abi": [
    {
      "inputs": [],
      "stateMutability": "nonpayable",
      "type": "constructor"
    },
    {
      "anonymous": false,
      "inputs": [
        {
          "indexed": true,
          "internalType": "uint256",
          "name": "productId",
          "type": "uint256"
        },
        {
          "indexed": false,
          "internalType": "bool",
          "name": "ethical",
          "type": "bool"
        },
        {
          "indexed": false,
          "internalType": "bool",
          "name": "compliant",
          "type": "bool"
        }
      ],
      "name": "ComplianceMarked",
      "type": "event"
    },
    {
      "anonymous": false,
      "inputs": [
        {
          "indexed": true,
          "internalType": "uint256",
          "name": "productId",
          "type": "uint256"
        },
        {
          "indexed": true,
          "internalType": "address",
          "name": "oldOwner",
          "type": "address"
        },
        {
          "indexed": true,
          "internalType": "address",
          "name": "newOwner",
          "type": "address"
        }
      ],
      "name": "OwnershipTransferred",
      "type": "event"
    },
    {
      "anonymous": false,
      "inputs": [
        {
          "indexed": true,
          "internalType": "uint256",
          "name": "productId",
          "type": "uint256"
        },
        {
          "indexed": true,
          "internalType": "address",
          "name": "owner",
          "type": "address"
        },
        {
          "indexed": false,
          "internalType": "string",
          "name": "description",
          "type": "string"
        },
        {
          "indexed": false,
          "internalType": "string",
          "name": "location",
          "type": "string"
        }
      ],
      "name": "ProductAdded",
      "type": "event"
    },
    {
      "anonymous": false,
      "inputs": [
        {
          "indexed": true,
          "internalType": "uint256",
          "name": "productId",
          "type": "uint256"
        },
        {
          "indexed": false,
          "internalType": "enum SupplyChain.Stage",
          "name": "stage",
          "type": "uint8"
        },
        {
          "indexed": false,
          "internalType": "string",
          "name": "location",
          "type": "string"
        },
        {
          "indexed": false,
          "internalType": "string",
          "name": "action",
          "type": "string"
        }
      ],
      "name": "StageUpdated",
      "type": "event"
    },
    {
      "inputs": [
        {
          "internalType": "uint256",
          "name": "productId",
          "type": "uint256"
        },
        {
          "internalType": "string",
          "name": "description",
          "type": "string"
        },
        {
          "internalType": "string",
          "name": "location",
          "type": "string"
        }
      ],
      "name": "addProduct",
      "outputs": [],
      "stateMutability": "nonpayable",
      "type": "function"
    },
    {
      "inputs": [],
      "name": "admin",
      "outputs": [
        {
          "internalType": "address",
          "name": "",
          "type": "address"
        }
      ],
      "stateMutability": "view",
      "type": "function"
    },
    {
      "inputs": [
        {
          "internalType": "uint256",
          "name": "productId",
          "type": "uint256"
        }
      ],
      "name": "getHistory",
      "outputs": [
        {
          "components": [
            {
              "internalType": "enum SupplyChain.Stage",
              "name": "stage",
              "type": "uint8"
            },
            {
              "internalType": "string",
              "name": "location",
              "type": "string"
            },
            {
              "internalType": "string",
              "name": "action",
              "type": "string"
            },
            {
              "internalType": "uint256",
              "name": "timestamp",
              "type": "uint256"
            }
          ],
          "internalType": "struct SupplyChain.StageDetail[]",
          "name": "details",
          "type": "tuple[]"
        },
        {
          "internalType": "address[]",
          "name": "owners",
          "type": "address[]"
        }
      ],
      "stateMutability": "view",
      "type": "function"
    },
    {
      "inputs": [
        {
          "internalType": "uint256",
          "name": "productId",
          "type": "uint256"
        }
      ],
      "name": "getProduct",
      "outputs": [
        {
          "internalType": "uint256",
          "name": "id",
          "type": "uint256"
        },
        {
          "internalType": "string",
          "name": "description",
          "type": "string"
        },
        {
          "internalType": "address",
          "name": "owner",
          "type": "address"
        },
        {
          "internalType": "string",
          "name": "location",
          "type": "string"
        },
        {
          "internalType": "enum SupplyChain.Stage",
          "name": "stage",
          "type": "uint8"
        },
        {
          "internalType": "bool",
          "name": "ethical",
          "type": "bool"
        },
        {
          "internalType": "bool",
          "name": "compliant",
          "type": "bool"
        }
      ],
      "stateMutability": "view",
      "type": "function"
    },
    {
      "inputs": [
        {
          "internalType": "uint256",
          "name": "productId",
          "type": "uint256"
        },
        {
          "internalType": "bool",
          "name": "ethical",
          "type": "bool"
        },
        {
          "internalType": "bool",
          "name": "compliant",
          "type": "bool"
        }
      ],
      "name": "markCompliance",
      "outputs": [],
      "stateMutability": "nonpayable",
      "type": "function"
    },
    {
      "inputs": [
        {
          "internalType": "uint256",
          "name": "productId",
          "type": "uint256"
        },
        {
          "internalType": "address",
          "name": "newOwner",
          "type": "address"
        }
      ],
      "name": "transferOwnership",
      "outputs": [],
      "stateMutability": "nonpayable",
      "type": "function"
    },
    {
      "inputs": [
        {
          "internalType": "uint256",
          "name": "productId",
          "type": "uint256"
        },
        {
          "internalType": "enum SupplyChain.Stage",
          "name": "newStage",
          "type": "uint8"
        },
        {
          "internalType": "string",
          "name": "location",
          "type": "string"
        },
        {
          "internalType": "string",
          "name": "action",
          "type": "string"
        }
      ],
      "name": "updateStage",
      "outputs": [],
      "stateMutability": "nonpayable",
      "type": "function"
    }
  ],
  "bytecode": "0x608060405234801561001057600080fd5b50336000806101000a81548173ffffffffffffffffffffffffffffffffffffffff021916908373ffffffffffffffffffffffffffffffffffffffff160217905550612115806100606000396000f3fe608060405234801561001057600080fd5b506004361061007d5760003560e01c8063b9db15b41161005b578063b9db15b4146100d6578063c8691b2a1461010c578063eeb89b811461013d578063f851a440146101595761007d565b806329507f73146100825780632e9977161461009e57806358d9a040146100ba575b600080fd5b61009c6004803603810190610097919061134b565b610177565b005b6100b860048036038101906100b391906113c3565b6103e7565b005b6100d460048036038101906100cf919061147b565b610573565b005b6100f060048036038101906100eb9190611510565b6109cf565b6040516101039796959493929190611671565b60405180910390f35b61012660048036038101906101219190611510565b610bf0565b604051610134929190611940565b60405180910390f35b6101576004803603810190610152919061199c565b610ed5565b005b610161611289565b60405161016e9190611a43565b60405180910390f35b813373ffffffffffffffffffffffffffffffffffffffff166001600083815260200190815260200160002060020160009054906101000a900473ffffffffffffffffffffffffffffffffffffffff1673ffffffffffffffffffffffffffffffffffffffff161461021c576040517f08c379a000000000000000000000000000000000000000000000000000000000815260040161021390611aaa565b60405180910390fd5b6001600084815260200190815260200160002060080160029054906101000a900460ff1661027f576040517f08c379a000000000000000000000000000000000000000000000000000000000815260040161027690611b16565b60405180910390fd5b60006001600085815260200190815260200160002060020160009054906101000a900473ffffffffffffffffffffffffffffffffffffffff169050826001600086815260200190815260200160002060020160006101000a81548173ffffffffffffffffffffffffffffffffffffffff021916908373ffffffffffffffffffffffffffffffffffffffff16021790555060016000858152602001908152602001600020600601839080600181540180825580915050600190039060005260206000200160009091909190916101000a81548173ffffffffffffffffffffffffffffffffffffffff021916908373ffffffffffffffffffffffffffffffffffffffff1602179055508273ffffffffffffffffffffffffffffffffffffffff168173ffffffffffffffffffffffffffffffffffffffff16857f16b85f49bf01212961345d3016c9a531894accf62eb7680f2045d79185cc0ec060405160405180910390a450505050565b60008054906101000a900473ffffffffffffffffffffffffffffffffffffffff1673ffffffffffffffffffffffffffffffffffffffff163373ffffffffffffffffffffffffffffffffffffffff1614610475576040517f08c379a000000000000000000000000000000000000000000000000000000000815260040161046c90611b82565b60405180910390fd5b6001600084815260200190815260200160002060080160029054906101000a900460ff166104d8576040517f08c379a00000000000000000000000000000000000000000000000000000000081526004016104cf90611b16565b60405180910390fd5b816001600085815260200190815260200160002060080160006101000a81548160ff021916908315150217905550806001600085815260200190815260200160002060080160016101000a81548160ff021916908315150217905550827f444919c27342f6d75f65dbd8de4a454256ff5abbdd00e302786c0c4f93d6756c8383604051610566929190611ba2565b60405180910390a2505050565b60008054906101000a900473ffffffffffffffffffffffffffffffffffffffff1673ffffffffffffffffffffffffffffffffffffffff163373ffffffffffffffffffffffffffffffffffffffff1614610601576040517f08c379a00000000000000000000000000000000000000000000000000000000081526004016105f890611b82565b60405180910390fd5b6001600086815260200190815260200160002060080160029054906101000a900460ff1615610665576040517f08c379a000000000000000000000000000000000000000000000000000000000815260040161065c90611c17565b60405180910390fd5b60006001600087815260200190815260200160002090508581600001819055508484826001019182610698929190611e7d565b50338160020160006101000a81548173ffffffffffffffffffffffffffffffffffffffff021916908373ffffffffffffffffffffffffffffffffffffffff16021790555082828260030191826106ef929190611e7d565b5060008160040160006101000a81548160ff02191690836005811115610718576107176115eb565b5b021790555060008160080160006101000a81548160ff02191690831515021790555060008160080160016101000a81548160ff02191690831515021790555060018160080160026101000a81548160ff02191690831515021790555080600501600090806001815401808255809150506001900390600052602060002090602091828204019190069091909190916101000a81548160ff021916908360058111156107c6576107c56115eb565b5b021790555080600601339080600181540180825580915050600190039060005260206000200160009091909190916101000a81548173ffffffffffffffffffffffffffffffffffffffff021916908373ffffffffffffffffffffffffffffffffffffffff16021790555080600701604051806080016040528060006005811115610853576108526115eb565b5b815260200185858080601f016020809104026020016040519081016040528093929190818152602001838380828437600081840152601f19601f8201169050808301925050505050505081526020016040518060400160405280600f81526020017f50726f6475637420437265617465640000000000000000000000000000000000815250815260200142815250908060018154018082558091505060019003906000526020600020906004020160009091909190915060008201518160000160006101000a81548160ff02191690836005811115610935576109346115eb565b5b0217905550602082015181600101908161094f9190611f4d565b5060408201518160020190816109659190611f4d565b506060820151816003015550503373ffffffffffffffffffffffffffffffffffffffff16867f6b3f37913aaf9478733d6bfbdd423a3362aa3ee9eb58d39d95699471bb157027878787876040516109bf949392919061205b565b60405180910390a3505050505050565b600060606000606060008060006001600089815260200190815260200160002060080160029054906101000a900460ff16610a3f576040517f08c379a0000000000000000000000000000000000000000000000000000000008152600401610a3690611b16565b60405180910390fd5b6000600160008a815260200190815260200160002090508060000154816001018260020160009054906101000a900473ffffffffffffffffffffffffffffffffffffffff16836003018460040160009054906101000a900460ff168560080160009054906101000a900460ff168660080160019054906101000a900460ff16858054610aca90611ca0565b80601f0160208091040260200160405190810160405280929190818152602001828054610af690611ca0565b8015610b435780601f10610b1857610100808354040283529160200191610b43565b820191906000526020600020905b815481529060010190602001808311610b2657829003601f168201915b50505050509550838054610b5690611ca0565b80601f0160208091040260200160405190810160405280929190818152602001828054610b8290611ca0565b8015610bcf5780601f10610ba457610100808354040283529160200191610bcf565b820191906000526020600020905b815481529060010190602001808311610bb257829003601f168201915b50505050509350975097509750975097509750975050919395979092949650565b6060806001600084815260200190815260200160002060080160029054906101000a900460ff16610c56576040517f08c379a0000000000000000000000000000000000000000000000000000000008152600401610c4d90611b16565b60405180910390fd5b600160008481526020019081526020016000206007016001600085815260200190815260200160002060060181805480602002602001604051908101604052809291908181526020016000905b82821015610e3e57838290600052602060002090600402016040518060800160405290816000820160009054906101000a900460ff166005811115610ceb57610cea6115eb565b5b6005811115610cfd57610cfc6115eb565b5b8152602001600182018054610d1190611ca0565b80601f0160208091040260200160405190810160405280929190818152602001828054610d3d90611ca0565b8015610d8a5780601f10610d5f57610100808354040283529160200191610d8a565b820191906000526020600020905b815481529060010190602001808311610d6d57829003601f168201915b50505050508152602001600282018054610da390611ca0565b80601f0160208091040260200160405190810160405280929190818152602001828054610dcf90611ca0565b8015610e1c5780601f10610df157610100808354040283529160200191610e1c565b820191906000526020600020905b815481529060010190602001808311610dff57829003601f168201915b5050505050815260200160038201548152505081526020019060010190610ca3565b50505050915080805480602002602001604051908101604052809291908181526020018280548015610ec557602002820191906000526020600020905b8160009054906101000a900473ffffffffffffffffffffffffffffffffffffffff1673ffffffffffffffffffffffffffffffffffffffff1681526020019060010190808311610e7b575b5050505050905091509150915091565b853373ffffffffffffffffffffffffffffffffffffffff166001600083815260200190815260200160002060020160009054906101000a900473ffffffffffffffffffffffffffffffffffffffff1673ffffffffffffffffffffffffffffffffffffffff1614610f7a576040517f08c379a0000000000000000000000000000000000000000000000000000000008152600401610f7190611aaa565b60405180910390fd5b6001600088815260200190815260200160002060080160029054906101000a900460ff16610fdd576040517f08c379a0000000000000000000000000000000000000000000000000000000008152600401610fd490611b16565b60405180910390fd5b6000600160008981526020019081526020016000209050868160040160006101000a81548160ff0219169083600581111561101b5761101a6115eb565b5b02179055508585826003019182611033929190611e7d565b50806005018790806001815401808255809150506001900390600052602060002090602091828204019190069091909190916101000a81548160ff02191690836005811115611085576110846115eb565b5b021790555080600601339080600181540180825580915050600190039060005260206000200160009091909190916101000a81548173ffffffffffffffffffffffffffffffffffffffff021916908373ffffffffffffffffffffffffffffffffffffffff160217905550806007016040518060800160405280896005811115611111576111106115eb565b5b815260200188888080601f016020809104026020016040519081016040528093929190818152602001838380828437600081840152601f19601f82011690508083019250505050505050815260200186868080601f016020809104026020016040519081016040528093929190818152602001838380828437600081840152601f19601f82011690508083019250505050505050815260200142815250908060018154018082558091505060019003906000526020600020906004020160009091909190915060008201518160000160006101000a81548160ff02191690836005811115611202576112016115eb565b5b0217905550602082015181600101908161121c9190611f4d565b5060408201518160020190816112329190611f4d565b50606082015181600301555050877f1858b0881da7f65ed5a62793022d67bcd8c77617a06a339b303208807bc9d7438888888888604051611277959493929190612096565b60405180910390a25050505050505050565b60008054906101000a900473ffffffffffffffffffffffffffffffffffffffff1681565b600080fd5b600080fd5b6000819050919050565b6112ca816112b7565b81146112d557600080fd5b50565b6000813590506112e7816112c1565b92915050565b600073ffffffffffffffffffffffffffffffffffffffff82169050919050565b6000611318826112ed565b9050919050565b6113288161130d565b811461133357600080fd5b50565b6000813590506113458161131f565b92915050565b60008060408385031215611362576113616112ad565b5b6000611370858286016112d8565b925050602061138185828601611336565b9150509250929050565b60008115159050919050565b6113a08161138b565b81146113ab57600080fd5b50565b6000813590506113bd81611397565b92915050565b6000806000606084860312156113dc576113db6112ad565b5b60006113ea868287016112d8565b93505060206113fb868287016113ae565b925050604061140c868287016113ae565b9150509250925092565b600080fd5b600080fd5b600080fd5b60008083601f84011261143b5761143a611416565b5b8235905067ffffffffffffffff8111156114585761145761141b565b5b60208301915083600182028301111561147457611473611420565b5b9250929050565b600080600080600060608688031215611497576114966112ad565b5b60006114a5888289016112d8565b955050602086013567ffffffffffffffff8111156114c6576114c56112b2565b5b6114d288828901611425565b9450945050604086013567ffffffffffffffff8111156114f5576114f46112b2565b5b61150188828901611425565b92509250509295509295909350565b600060208284031215611526576115256112ad565b5b6000611534848285016112d8565b91505092915050565b611546816112b7565b82525050565b600081519050919050565b600082825260208201905092915050565b60005b8381101561158657808201518184015260208101905061156b565b60008484015250505050565b6000601f19601f8301169050919050565b60006115ae8261154c565b6115b88185611557565b93506115c8818560208601611568565b6115d181611592565b840191505092915050565b6115e58161130d565b82525050565b7f4e487b7100000000000000000000000000000000000000000000000000000000600052602160045260246000fd5b6006811061162b5761162a6115eb565b5b50565b600081905061163c8261161a565b919050565b600061164c8261162e565b9050919050565b61165c81611641565b82525050565b61166b8161138b565b82525050565b600060e082019050611686600083018a61153d565b818103602083015261169881896115a3565b90506116a760408301886115dc565b81810360608301526116b981876115a3565b90506116c86080830186611653565b6116d560a0830185611662565b6116e260c0830184611662565b98975050505050505050565b600081519050919050565b600082825260208201905092915050565b6000819050602082019050919050565b61172381611641565b82525050565b600082825260208201905092915050565b60006117458261154c565b61174f8185611729565b935061175f818560208601611568565b61176881611592565b840191505092915050565b61177c816112b7565b82525050565b600060808301600083015161179a600086018261171a565b50602083015184820360208601526117b2828261173a565b915050604083015184820360408601526117cc828261173a565b91505060608301516117e16060860182611773565b508091505092915050565b60006117f88383611782565b905092915050565b6000602082019050919050565b6000611818826116ee565b61182281856116f9565b9350836020820285016118348561170a565b8060005b85811015611870578484038952815161185185826117ec565b945061185c83611800565b925060208a01995050600181019050611838565b50829750879550505050505092915050565b600081519050919050565b600082825260208201905092915050565b6000819050602082019050919050565b6118b78161130d565b82525050565b60006118c983836118ae565b60208301905092915050565b6000602082019050919050565b60006118ed82611882565b6118f7818561188d565b93506119028361189e565b8060005b8381101561193357815161191a88826118bd565b9750611925836118d5565b925050600181019050611906565b5085935050505092915050565b6000604082019050818103600083015261195a818561180d565b9050818103602083015261196e81846118e2565b90509392505050565b6006811061198457600080fd5b50565b60008135905061199681611977565b92915050565b600080600080600080608087890312156119b9576119b86112ad565b5b60006119c789828a016112d8565b96505060206119d889828a01611987565b955050604087013567ffffffffffffffff8111156119f9576119f86112b2565b5b611a0589828a01611425565b9450945050606087013567ffffffffffffffff811115611a2857611a276112b2565b5b611a3489828a01611425565b92509250509295509295509295565b6000602082019050611a5860008301846115dc565b92915050565b7f4e6f74206f776e65720000000000000000000000000000000000000000000000600082015250565b6000611a94600983611557565b9150611a9f82611a5e565b602082019050919050565b60006020820190508181036000830152611ac381611a87565b9050919050565b7f50726f64756374206d697373696e670000000000000000000000000000000000600082015250565b6000611b00600f83611557565b9150611b0b82611aca565b602082019050919050565b60006020820190508181036000830152611b2f81611af3565b9050919050565b7f4e6f742061646d696e0000000000000000000000000000000000000000000000600082015250565b6000611b6c600983611557565b9150611b7782611b36565b602082019050919050565b60006020820190508181036000830152611b9b81611b5f565b9050919050565b6000604082019050611bb76000830185611662565b611bc46020830184611662565b9392505050565b7f50726f6475637420657869737473000000000000000000000000000000000000600082015250565b6000611c01600e83611557565b9150611c0c82611bcb565b602082019050919050565b60006020820190508181036000830152611c3081611bf4565b9050919050565b600082905092915050565b7f4e487b7100000000000000000000000000000000000000000000000000000000600052604160045260246000fd5b7f4e487b7100000000000000000000000000000000000000000000000000000000600052602260045260246000fd5b60006002820490506001821680611cb857607f821691505b602082108103611ccb57611cca611c71565b5b50919050565b60008190508160005260206000209050919050565b60006020601f8301049050919050565b600082821b905092915050565b600060088302611d337fffffffffffffffffffffffffffffffffffffffffffffffffffffffffffffffff82611cf6565b611d3d8683611cf6565b95508019841693508086168417925050509392505050565b6000819050919050565b6000611d7a611d75611d70846112b7565b611d55565b6112b7565b9050919050565b6000819050919050565b611d9483611d5f565b611da8611da082611d81565b848454611d03565b825550505050565b600090565b611dbd611db0565b611dc8818484611d8b565b505050565b5b81811015611dec57611de1600082611db5565b600181019050611dce565b5050565b601f821115611e3157611e0281611cd1565b611e0b84611ce6565b81016020851015611e1a578190505b611e2e611e2685611ce6565b830182611dcd565b50505b505050565b600082821c905092915050565b6000611e5460001984600802611e36565b1980831691505092915050565b6000611e6d8383611e43565b9150826002028217905092915050565b611e878383611c37565b67ffffffffffffffff811115611ea057611e9f611c42565b5b611eaa8254611ca0565b611eb5828285611df0565b6000601f831160018114611ee45760008415611ed2578287013590505b611edc8582611e61565b865550611f44565b601f198416611ef286611cd1565b60005b82811015611f1a57848901358255600182019150602085019450602081019050611ef5565b86831015611f375784890135611f33601f891682611e43565b8355505b6001600288020188555050505b50505050505050565b611f568261154c565b67ffffffffffffffff811115611f6f57611f6e611c42565b5b611f798254611ca0565b611f84828285611df0565b600060209050601f831160018114611fb75760008415611fa5578287015190505b611faf8582611e61565b865550612017565b601f198416611fc586611cd1565b60005b82811015611fed57848901518255600182019150602085019450602081019050611fc8565b8683101561200a5784890151612006601f891682611e43565b8355505b6001600288020188555050505b505050505050565b82818337600083830152505050565b600061203a8385611557565b935061204783858461201f565b61205083611592565b840190509392505050565b6000604082019050818103600083015261207681868861202e565b9050818103602083015261208b81848661202e565b905095945050505050565b60006060820190506120ab6000830188611653565b81810360208301526120be81868861202e565b905081810360408301526120d381848661202e565b9050969550505050505056fea26469706673582212201a296b9d809e5cf48d3ab4446780c276e1da228618ea80d83d31ebaac8f0e35064736f6c63430008140033",
  "linkReferences": {},
  "deployedLinkReferences": {}
}